:020000040800F2
:1000000068040020A90100080F170008191500084E
:100010000D170008610700080B1900080000000018
:10002000000000000000000000000000131700089E
:1000300063070008000000001117000815170008EA
:10004000C3010008C3010008C3010008C301000880
:10005000C3010008C3010008C3010008C301000870
:10006000C3010008C3010008C3010008C301000860
:10007000C3010008C3010008C3010008C301000850
:10008000C3010008C3010008C3010008000000000C
:10009000000000000000000000000000C301000894
:1000A000C3010008C3010008C3010008C301000820
:1000B000C3010008A9170008C3010008C301000814
:1000C000C3010008C3010008C3010008C301000800
:1000D000C3010008C3010008C301000800000000BC
:1000E000C3010008C3010008C301000800000000AC
:1000F000000000000000000000000000C301000834
:1001000000000000C3010008C3010008C30100088B
:1001100000000000000000000000000000000000DF
:10012000C3010008C3010008C3010008C30100089F
:10013000C3010008000000000000000000000000F3
:10014000000000000000000000000000C3010008E3
:10015000C3010008C3010008C3010008C30100086F
:10016000C3010008C30100080000000000000000F7
:10017000000000000000000000000000000000007F
:1001800000000000C30100080000000000000000A3
:10019000C3010008DFF80CD000F0D0FA0048004797
:1001A00049220008680400200648804706480047A6
:1001B000FEE7FEE7FEE7FEE7FEE7FEE7FEE7FEE717
:1001C000FEE7FEE78D170008950100082DE9F05FB6
:1001D0000546002092469B468846064681464024B6
:1001E0001BE0284641464746224600F086F9534622
:1001F0005A46C01A914110D311461846224600F0C3
:100200006DF92D1A67EB01084F46224601200021A7
:1002100000F064F917EB00094E41201EA4F101041F
:10022000DFDC484631462A464346BDE8F09FD2B25D
:1002300001E000F8012B491EFBD270470022F6E7CF
:1002400010B513460A4604461946FFF7F0FF20464C
:1002500010BD2DE9FE4F804681EA0300C00F0C4619
:10026000009021F0004123F00045B8EB0200A941C5
:1002700005D24046214690461C460B46024623F0D6
:100280000040104347D0270DC7F30A00C3F30A51BB
:100290000290401A019040286BDAC3F3130040F437
:1002A000801B0098924620B10023D2EB030A63EB37
:1002B0000B0B01985946C0F14002504600F00EF970
:1002C00006460D4650465946019A00F026F910EBB5
:1002D00008006141002487EA115284EAE7731A4357
:1002E00040D0009A62B3019A012A4FEA075215DC06
:1002F000001B61EB02014FF0004202EA0752CDE918
:100300000042001C41F5801132462B4600F026F9D0
:1003100003B0BDE8F08F40462146F9E7001B61EBD2
:100320000201001C41F5801300185B412018A2F562
:10033000001747EB030140EAD570B6196D4111E093
:100340006D084FEA360645EAC0754FEA0752001BB2
:1003500061EB0201001C41F5801149084FEA3000B1
:100360000019514132462B4603B0BDE8F04F00F072
:10037000E6B80098012240000023D0EB020263EBB4
:10038000E073009821464FEAE074B8EB000061EB9F
:100390000401E9E783F000435BE781F0004158E79F
:1003A0002DE9F04D81EA030404F0004B21F00045F3
:1003B00014464FF0000A23F0004150EA050220D015
:1003C00054EA01021DD0C5F30A570246C5F31303D0
:1003D000C1F31300C1F30A5640F4801543F48013AF
:1003E000A7EB0608101BD64608F2FD3873EB050094
:1003F00002D308F1010801E092185B41B8F1000F47
:1004000003DA00200146BDE8F08D00204FF4801192
:10041000064684460EE0171B73EB050705D3121B37
:1004200063EB050306434CEA010C49084FEA300030
:1004300092185B4150EA0107EDD152EA030012D055
:1004400082EA040083EA0501084305D0101BAB4192
:1004500006D20122002306E000224FF0004302E012
:100460006FF0010253101AEB06004CEB085110EB31
:100470000A0041EB0B01BDE8F04D00F060B80EB58D
:1004800040F2334102910021CDE900110A460B46AA
:1004900000F064F803B000BD0EB540F233420292A2
:1004A0000022CDE90022134600F058F803B000BD49
:1004B00030B50B46014600202022012409E021FA34
:1004C00002F59D4205D303FA02F5491B04FA02F531
:1004D0002844151EA2F10102F1DC30BD202A04DB04
:1004E000203A00FA02F1002070479140C2F1200347
:1004F00020FA03F3194390407047202A04DB203A86
:1005000021FA02F00021704721FA02F3D040C2F133
:1005100020029140084319467047202A06DBCB177A
:10052000203A41FA02F043EAE07306E041FA02F3AE
:10053000D040C2F12002914008431946704710B5DF
:10054000141E73F1000408DA401C41F100019218F6
:100550005B411A4301D120F0010010BD2DE9F04D9F
:1005600092469B4611B1B1FA81F202E0B0FA80F2F4
:1005700020329046FFF7B2FF04460F4640EA0A00D9
:1005800041EA0B0153465A46084313D0114653EA39
:10059000010019D0C8F140025046FFF7AEFF0546F2
:1005A0000E46504659464246FFF798FF084305D08D
:1005B000012004E020463946BDE8F08D00200543C7
:1005C00046EAE0762C4337430A986305E40AA0EB39
:1005D00008000022FD0A44EA47540A3002D50020F0
:1005E0000146E9E7010510196941DDE908450019EF
:1005F0006941BDE8F04DA2E72DE9FE4F81EA030411
:1006000004F0004421F0004100944FF0000B23F06F
:10061000004350EA01045ED052EA03045BD0C3F306
:100620000A54C1F30A552C44A4F2F3340194A0FBFC
:100630000254C1F3130141F48011C3F3130343F4D3
:10064000801301FB024400FB034E840A970A44EA2C
:10065000815447EA8357A4FB076802958D0A05FB7E
:1006600007854FEA932C04FB0C542705029D4FEAA3
:10067000065847EA1637B5EB08056EEB070C870EF0
:10068000920E47EA811742EA8312A7FB0201B6EBFA
:100690000B0164EB00042B0D43EA0C335E1844EBB2
:1006A0001C50DA465146E7FB0201C5F313044FEA3A
:1006B0000B3343EA14534FEA0432019C43EA060326
:1006C000A4F10C040294009CCDE900B4FFF746FFAE
:1006D00003B0BDE8F08F00200146F9E7C1F30A52EC
:1006E000C1F3130140F2FF3341F480119A4202DA60
:1006F00000200146704740F233439A42A2F233424F
:1007000002DC5242FFF7F9BEFFF7E8BE30B5041E27
:1007100071F1000404DB4FF00044404264EB01013E
:10072000141E73F1000405DB1C464FF000435242D7
:1007300063EB0403994208BF904230BD064C074D5D
:1007400006E0E06840F0010394E8070098471034A1
:10075000AC42F6D3FFF722FD8C220008AC22000841
:10076000FEE770472DE9F041002401250F46804641
:100770002E4606FA04F03D4281B201D1002200E08B
:100780000122404600F0D2F86806641C050EE4B26F
:10079000102CEED3BDE8F0812DE9F84F00224FF088
:1007A000010803254FF00F0E0B6808FA02F42340EE
:1007B000A34271D14E68012E05D0022E03D0112E16
:1007C00001D0122E15D18668570005FA07FC26EADB
:1007D0000C06D1F80CC00CFA07FC4CEA060CC0F869
:1007E00008C04668A6430C79C4F30014944034430F
:1007F0004460C668570005FA07FC8C6826EA0C06B8
:10080000BC403443C4604C68022C01D0122C13D17C
:10081000D40800EB8404A346D4F8209054074FEA90
:10082000D46A0EFA0AF629EA06090E6906FA0AF6E9
:1008300046EA0906CBF8206004680E7924EA0C0425
:1008400006F00306BE40264306604C68E40056D519
:100850002E4C266846F480462660246822F0030663
:1008600004F4804400942A4C3444A446D4F8084844
:100870009607370F0EFA07F6B443264EB04201D161
:10088000002615E0244EB04201D1012610E0234E8F
:10089000B04202D102260BE031E0214EB04201D13C
:1008A000032605E01F4EB04201D1042600E00726D2
:1008B000BE402643CCF808681B4E34684F689C4302
:1008C000FF0300D51C433460174E361D34684F6853
:1008D0009C43BF0300D51C433460134E0836346874
:1008E0004F689C43FF0200D51C4334600E4E0C360B
:1008F00034684F689C43BF0200D51C433460521CCF
:10090000102AFFF451AFBDE8F88F000044380240D0
:100910000030014000000240000402400008024094
:10092000000C024000100240003C01400AB181610D
:1009300070470904FBE70000014880687047000029
:1009400018000020024881680278114481607047D5
:10095000180000200B4810B5016841F400710160D7
:10096000016841F480610160016841F480710160B7
:10097000032000F07FF8002000F006F800F024F8D3
:10098000002010BD003C024070B50D4D04464FF4F0
:100990007A712878B1FBF0F00A490968B1FBF0F0F0
:1009A00000F0F4FA48B9102C07D200222146501E5C
:1009B00000F040F800206C6070BD012070BD0000A8
:1009C00018000020240000200A4808B5016841F4FE
:1009D00080410160006800F4804000900548001FDD
:1009E000016841F080510160006800F08050009083
:1009F00008BD00004438024000280DDB00F01F0253
:100A0000012191404009800000F1E020C0F88011F0
:100A1000BFF34F8FBFF36F8F7047002809DB00F0E3
:100A20001F02012191404009800000F1E020C0F840
:100A300000117047F0B40E4B1B680C46C3F3022341
:100A4000C3F10705042D00D90425191D072901D27A
:100A5000002300E0DB1E012606FA05F1491E2140B5
:100A600099409E40761E16403143F0BC00F062BFB4
:100A70000CED00E0064900F0070208684FF6FF039E
:100A8000184040EA0220034A104308607047000003
:100A90000CED00E00000FA052DE9F0470E460500D8
:100AA00065D0DFF81481D8F80000F7B200F00F002D
:100AB000B04207D288F80070D8F8000000F00F00AC
:100AC000B04254D128683D4C810712D5400703D568
:100AD000206840F4E05020602878000703D52068A3
:100AE00040F4604020602068A96820F0F0000843CE
:100AF00020602878C0072DD030496868083901285F
:100B000012D0022813D0032811D0096889070029C0
:100B10002DDA216821F0030101432160FFF70CFF6A
:100B2000814641F2883A0EE009688903EFE70968D7
:100B30008901ECE7FFF700FFA0EB0901514502D95D
:100B40000320BDE8F0872068696800F00C00B0EB76
:100B5000810FEFD1D8F80010404601F00F01B142EB
:100B600007D90770006800F00F00B04201D00120E3
:100B7000E7E72878400705D52068E96820F4E050C9
:100B8000084320602878000706D52068296920F4EA
:100B9000604040EAC100206000F018F82168084A6F
:100BA000C1F30311515CC84006490860064800685B
:100BB000FFF7EAFE0020C4E7003C0240083802408C
:100BC0007C220008240000201C000020154810B5DD
:100BD000006810F00C02144813D01449042A0FD0F6
:100BE000082A0ED10F4C241F2268236802F03F020E
:100BF0005B0207D52068C0F38810A0FB010106E066
:100C0000084610BD2168C1F38811A1FB0001002333
:100C1000FFF7DCFA2168C1F30141491C4900B0FB30
:100C2000F1F010BD083802400024F40040787D0146
:100C30002DE9F84F04006ED02078DFF83C93C00710
:100C4000A9F104054AD009F104000168C1F381014A
:100C5000012908D00068C0F3810002280AD1D9F820
:100C60000000400206D52868800337D56068002858
:100C7000E1D033E06068B0F5803F10D0B0F5A02F30
:100C8000286810D020F480302860286820F4802064
:100C900028606068A8B1FFF74FFE06460DE028689F
:100CA00040F48030F4E740F480202860F7E700BF8C
:100CB000FFF742FE801B642873D828688003F7D5AD
:100CC0000CE0FFF739FE064605E000BFFFF734FEF3
:100CD000801B6428F0D828688003F7D42078DFF8D8
:100CE0009C8280074FF0000A3ED5A348001D016892
:100CF00011F00C0F08D00068C0F3810002280BD15E
:100D0000D9F80000400207D42868800716D5E068AB
:100D1000012800D112E02BE1E068B8B10120C8F849
:100D20000000FFF709FE064605E000BFFFF704FEDE
:100D3000801B0228C0D828688007F7D52868216959
:100D400020F0F80040EAC10028600DE0C8F800A0DB
:100D5000FFF7F2FD064604E0FFF7EEFD801B0228D8
:100D60001FD828688007F7D42078000722D5824E44
:100D700083486169703671B101210160FFF7DCFDC4
:100D8000074604E0FFF7D8FDC01B022809D83068E9
:100D90008007F7D50EE0C0F800A0FFF7CDFD0746AD
:100DA00005E082E0FFF7C8FDC01B02287DD830684F
:100DB0008007F7D42078400768D5DFF8BCB100275A
:100DC0000BF13C0BDBF80000C0000BD4DBF800108B
:100DD00041F08051CBF80010DBF80000012700F053
:100DE00080500090674E3068C00510D4306840F4E1
:100DF00080703060FFF7A0FD009005E0FFF79CFDDC
:100E00000099401A022850D83068C005F6D55A4ECD
:100E1000A0686C3601280FD00528306810D020F06B
:100E200001003060306820F004003060A068B8B184
:100E3000FFF782FD00900FE0306840F00100F4E71A
:100E400040F004003060F7E7FFF776FD0099411AA3
:100E500041F28830814266D830688007F4D50EE0D0
:100E6000FFF76AFD009007E0FFF766FD0099411A61
:100E700041F28830814256D830688007F4D42FB1CF
:100E8000DBF8001021F08051CBF80010A069C8B346
:100E90003949091D0968C1F3810102294AD0022894
:100EA000504607D0C8F8600000E03CE0FFF744FD82
:100EB00004463BE04746C8F86000FFF73DFD0646A4
:100EC00005E000BFFFF738FD801B02282BD82868FB
:100ED0008001F7D4D4E907010843A16A2A4A4908E6
:100EE00002EB0141626A41EA8211084394F82C1036
:100EF00040EA0161C9F8001001203866FFF71CFDC7
:100F0000044606E036E000BFFFF716FD001B02288E
:100F100009D828688001F7D52CE000BFFFF70CFD49
:100F2000001B022802D90320BDE8F88F2868800141
:100F3000F4D41FE00128F7D0D9F80000E26900F4EA
:100F40008001914214D1226A00F03F0191420FD1F9
:100F500047F6C071626A0140914209D1A26A00F469
:100F60004031914204D1E16A00F07060884201D0C2
:100F70000120D9E70020D7E70438024000004742AB
:100F8000800E4742007000400000FFFF10B5401E79
:100F9000B0F1807F01D3012010BD4FF0E0246061EB
:100FA0000F21601700F0C6FC0020A061072020611F
:100FB000002010BD7047704770B590F83C20012AA2
:100FC0002CD0012480F83C40022280F83D200368A8
:100FD0005A689D6822F070060A6832435A60104BC6
:100FE00002689A420ED0B2F1804F0BD00D4B9A425C
:100FF00008D00D4B9A4205D00C4B9A4202D00C4BB4
:101000009A4204D1496825F080031943916080F821
:101010003D40002180F83C10084670BD022070BDA4
:10102000000001400004004000080040000C0040A7
:10103000004001400168CA6842F00102CA600068CD
:10104000816801F00701062903D0016841F0010120
:101050000160002070470000F0B52DED028B81B0DB
:101060001D20FFF7C9FC2D4C00262D4D20780128AE
:1010700001D0D0B349E00021294800F037FA606080
:1010800007462670D4E90201FFF706FA41EC180B77
:101090003846FFF7F4F99FED231B53EC112BFFF7B4
:1010A0007FF953EC182BFFF7D4F841EC100B1FA17C
:1010B00084ED040B53EC102B684600F027FC012054
:1010C00000F02CFA1BA000F09EFAC02000F026FAD7
:1010D000684600F098FA2868016A21F00A01016266
:1010E0002868016A41F002010EE0FFE728684662C5
:1010F000012020700020C4E902002868016A21F064
:101100000A0101622868016A016201B01D20BDEC7C
:10111000028BBDE8F040FFF780BC0000000000201B
:10112000280000200000000000408F40252E336C76
:10113000660000005075736865642054696D653AF7
:10114000200000002DE9F041044690F83C000D46D7
:1011500001283DD0012684F83C60022084F83D003F
:10116000AAB3042A46D02068082A55D0D5E900271A
:10117000E968036A23F480530362D0F81CC0036A51
:101180002CF4407C4CEA07274FF6FF7C27F470478D
:101190000CEA013139434FF4204723F4204307EA96
:1011A00002321A43C16102622068C16921F44061C0
:1011B000C1612068C169AA6841EA0221C0F81C1017
:1011C00084F83D60002084F83C00BDE8F08101E037
:1011D0000220FAE7D5E90012EB68206800F044FB32
:1011E0002068816921F00C01816120688169AA6809
:1011F00011430FE0D5E90012EB68206800F06AFBAC
:101200002068816921F44061816120688169AA6850
:1012100041EA02218161D3E7D5E9002C2F7B016AE5
:1012200021F480710162C169036A21F0030141EA7E
:101230000C0121F0F00C39074FF420674CEA1161E2
:1012400023F4206307EA02221A43C1610262206884
:10125000C16921F00C01C1612068C169AA6811430C
:10126000ACE710B5040003D094F83D0010B107E0DE
:10127000012010BD002084F83C00204600F00CF84E
:10128000022084F83D00211D206800F093FA01201F
:1012900084F83D00002010BD10B586B0044614212E
:1012A0006846FEF7CBFF17492068884227D11648C9
:1012B0000021026842F002020260006800F00200B1
:1012C000059011481038026842F00102026000687F
:1012D000012200F001000590402000900220CDE99D
:1012E0000102CDE9031069460848FFF755FA0022CC
:1012F00011461D20FFF79EFB1D20FFF78EFB06B059
:1013000010BD0000000400404038024000000240D0
:1013100010B50268044631B1042908D008291AD052
:101320000C2908D11BE0D06840F0020002E0D06830
:1013300040F00400D0600122206800F087FA2068A5
:10134000816801F00701062903D0016841F001011D
:101350000160002010BDD06840F00800EAE7D068C6
:1013600040F01000E6E770B50446006801694FF0F0
:101370000005C943890715D4C168C943890711D439
:10138000E91E0161012020772068806980072046DE
:1013900002D0FFF761FE04E000F098F8204600F06C
:1013A00096F8257720680169C943490717D4C168B1
:1013B000C943490713D46FF004010161022020776B
:1013C0002068806910F4407F204602D0FFF744FE79
:1013D00004E000F07BF8204600F079F825772068DB
:1013E0000169C943090716D4C168C943090712D462
:1013F0006FF008010161042020772068C069800730
:10140000204602D0FFF728FE04E000F05FF82046F7
:1014100000F05DF8257720680169C943C90617D433
:10142000C168C943C90613D46FF0100101610820D7
:1014300020772068C06910F4407F204602D0FFF773
:101440000BFE04E000F042F8204600F040F825775B
:1014500020680169C943C90708D1C168C943C907E0
:1014600004D1891E0161204600F032F8206801692C
:10147000C943090609D4C168C943090605D46FF0F8
:10148000800101612046FFF795FD20680169C9438D
:10149000490609D4C168C943490605D46FF0400123
:1014A0000161204600F037F820680169C9438906C8
:1014B0000BD4C168C943890607D46FF020010161CC
:1014C0002046BDE87040FFF776BD70BD704770479D
:1014D00005480178012906D1D0E90212491C42F1E0
:1014E0000002C0E9021270470000002002460020FE
:1014F00041B1042909D008290AD00C2901D110686A
:10150000006C70471068406B70471068806B7047C4
:101510001068C06B70477047FEE7000070B5134D50
:101520000446002220212846FFF700FA002240212D
:101530002846FFF7FBF921460D48FFF713F9012272
:1015400080212846FFF7F2F9012000F071FE002209
:1015500080212846FFF7EAF9042C01D2022000E09E
:101560000120BDE8704000F063BE000000040240AE
:101570000008024070B5114D044601222021284682
:10158000FFF7D4F9002240212846FFF7CFF9214682
:101590000B48FFF7E7F8012280212846FFF7C6F93C
:1015A000012000F045FE002280212846FFF7BEF909
:1015B000BDE87040012000F03BBE00000004024086
:1015C0000008024010B51E2000F032FE3020FFF768
:1015D000A5FF0A2000F02CFE3020FFF79FFF01201E
:1015E00000F026FE3020FFF799FF3820FFF796FF26
:1015F0000620FFF793FF0120FFF790FFBDE81040A2
:101600000F20FFF78BBF70B50546002403E0FFF7FE
:10161000B1FF641CE4B2285D0028F8D170BD000061
:10162000F0B587B014216846FEF708FE1D48002477
:10163000016841F004010160016801F004010591B5
:10164000016841F001010160016801F001010591AB
:10165000016841F0020101600068134E00F00200D1
:1016600005900022FF213046FFF760F90F4F00225E
:10167000E0213846FFF75AF9FF2000900125CDE917
:101680000154694630460394FFF786F8E020009045
:10169000CDE90154694638460394FFF77DF807B059
:1016A000F0BD000030380240000802400004024053
:1016B00010B586B000241448059404940094019455
:1016C00002941049039401604FF47A51C0E9011467
:1016D0000911C0E9031480218161FFF7C2FD049460
:1016E00004A909480594FFF767FC02200090012037
:1016F000CDE901040022694603480394FFF722FD67
:1017000006B010BD0004004028000020FEE770472E
:1017100070477047FFF716B910B592B03021684690
:10172000FEF78CFD14210CA8FEF788FD1548002457
:10173000016841F080510160006800F08050119014
:101740001148016821F4404141F400410160006802
:10175000069400F440401190022000900120039074
:10176000102004906846FFF763FA0F20CDE90C04BF
:101770000E940F9400210CA81094FFF78DF912B06D
:1017800010BD00004038024000700040054801686C
:1017900041F47001016003494FF000608039086036
:1017A0007047000088ED00E00148FFF7DCBD000055
:1017B00028000020F0B502681D4B1E4C9F031E4DF3
:1017C0001E4E984207D0B84205D0A04203D0A8428E
:1017D00001D0B04204D122F0700C4A6842EA0C02F7
:1017E000984210D0B8420ED0A0420CD0A8420AD0E5
:1017F000B04208D0124CA04205D0124CA04202D0F8
:10180000114CA04203D122F44074CA6822434C69AF
:1018100022F08002224302608A68C2620A68826201
:10182000984201D10969016301214161F0BD0000C5
:10183000000001400004004000080040000C00408F
:1018400000400140004401400048014010B501F053
:101850001F030121046A99408C430462016A9A4083
:101860001143016210BD000070B5046A24F0010448
:1018700004628469056A124EB0420ED0B0F1804F06
:101880000BD0104EB04208D00F4EB04205D00F4ED4
:10189000B04202D00E4EB04203D124F003041443F0
:1018A00001E044F001041A0724F0F00444EA126253
:1018B00025F00A0301F00A0119438261016270BD3B
:1018C000000001400004004000080040000C0040FF
:1018D0000040014030B5046A24F0100404628469B9
:1018E000056A24F4407444EA022222F470444FF65C
:1018F000FF7202EA03322243A02425F0A00304EA87
:10190000011119438261016230BDFEE70FB4084B3B
:1019100010B504A902AA039800F0EEF8044602A943
:10192000002000F080FC204610BC5DF814FB000095
:10193000272200080907090E002804DB00F1E02037
:1019400080F80014704700F00F0000F1E02080F8EC
:10195000141D704702E008C8121F08C1002AFAD1FE
:1019600070477047002001E001C1121F002AFBD11F
:10197000704700002DE9FF5F82B00021DDE90430EF
:10198000020DDDF840B0034318D044F61050A2F227
:10199000FF3242431514119801281FD0A5EB0B000C
:1019A000401C5FEA000A4FF000064E4FDFF8389106
:1019B000B046504615D5CAF1000413E01198012431
:1019C0004AA3012801D16FEA0B010298119AC0E9DC
:1019D0000031C0E9024206B0BDE8F09FCBF1000043
:1019E000DFE704460021404A491842EB0450CDE9A4
:1019F000001012E0E00707D032463B464046494619
:101A0000FEF7FAFD8046894632463B4610461946A7
:101A1000FEF7F2FD06460F466410002CEAD1DDE920
:101A20000401DDE90023BAF1000F06DAFEF7E4FD58
:101A300042464B46FEF7E0FD05E0FEF7B1FC4246AC
:101A40004B46FEF7ADFC04460E460022284BFEF73F
:101A50005DFE03D84FF0FF30014607E00022254B22
:101A600020463146FEF7F5FBFEF738FE102409E06C
:101A7000002C0ADB0A220023FEF7A8FB039B30326E
:101A80001A55641E50EA0102F2D1641C039AC4F193
:101A900011031444119A012A03D0012208430DD1E5
:101AA0000AE0084304D000204FF0110B119072E7B8
:101AB000A3EB0B056D1E0DE05B4504DD4FF000024E
:101AC00005F1010504E003DA4FF00002A5F101057C
:101AD000002AECD002981199C0E90231C0E9004512
:101AE00079E70000000014400000F03F30000000E3
:101AF0000000F0430000E03F2DE9FF4F95B09B460A
:101B00008946064600250FE2252877D1002427467E
:101B1000F84A0121059400E0044316F8013F203BF8
:101B200001FA03F01042F7D130782A2811D06FF073
:101B30002F033078A0F13002092A16D8059A44F014
:101B4000020402EB820203EB42021044761C059071
:101B5000EFE759F8042B0592002A03DA504244F4C7
:101B60000054059044F00204761C30782E2816D1DB
:101B700016F8010F44F004042A280DD06FF02F024C
:101B80003078A0F13003092B09D807EB870302EB6B
:101B90004303C718761CF3E759F8047B761C3078AA
:101BA0006C280FD006DC4C2817D068280DD06A2886
:101BB00014D104E0742810D07A280FD10DE044F439
:101BC00000140AE044F4801401E044F440147278F4
:101BD000824202D104F58014761C761C3078662887
:101BE0000BD013DC582877D009DC002875D04528A5
:101BF000F6D04628F4D047281AD19DE118E0632892
:101C000035D0642879D0652812D195E1702873D039
:101C100008DC6728F1D069286FD06E280DD06F28B6
:101C200006D1B5E073282CD0752875D0782874D0EB
:101C30005A46179990476D1C75E1C4F3025002286B
:101C400009D003280DD0D9F8001004280DD00D605C
:101C500009F1040967E1D9F80010EA17C1E9005257
:101C6000F6E7D9F800100D80F2E70D70F0E719F8EB
:101C7000041B8DF8001000208DF80100EA460120B9
:101C800003E059F804AB4FF0FF3061074FF000015B
:101C900002D40DE008F101018846B9420FDA80450F
:101CA000F8DB1AF808100029F4D108E008F1010166
:101CB00088468142FADB1AF808100029F6D1059807
:101CC0005B46A0EB080721463846179A00F094FAC5
:101CD000284400EB080507E04DE029E10DE01AF883
:101CE000010B5A4617999047B8F10108F7D25B46A5
:101CF00021463846179A13E142E00A220092C4F3C3
:101D000002524FF0000A022A08D059F804CB032AE5
:101D10004FEAEC710AD00DE029E02AE009F1070151
:101D200021F00702F2E802C1914609E00FFA8CFCAB
:101D30004FEAEC71042A03D14FFA8CFC4FEAEC71A4
:101D4000002907DA0A460021DCF1000C61EB0201F0
:101D50002D2202E0220504D52B228DF80420012239
:101D600003E0E20701D02022F7E7904659E00A217C
:101D700002E010220DE010214FF0000A00910BE06C
:101D800010224FF0000A44F004040827009203E0F8
:101D900008224FF0000A0092C4F30252022A05D032
:101DA00059F804CB0021032A08D009E009F1070102
:101DB00021F00702F2E802C1914605E01FFA8CFC0F
:101DC000042A01D10CF0FF0C4FF00008220728D59F
:101DD000702806D0009B83F0100353EA0A0305D055
:101DE0000EE040228DF80420012208E05CEA0102A6
:101DF00006D030228DF804208DF80500022290468E
:101E0000009B83F0080353EA0A030AD15CEA01024B
:101E100001D1620705D530228DF804204FF001086A
:101E20007F1E582804D034A003900EA802900DE025
:101E300036A0F9E753466046009AFEF7C7F9844694
:101E40000398825C0298401E029002705CEA0100D6
:101E5000F0D1029806A9081A00F1200A600702D5FD
:101E600024F4803400E00127574502DDA7EB0A0087
:101E700000E0002000EB0A01009005984144401A60
:101E80000590E00306D45B462146179A059800F0BA
:101E9000B3F90544002706E001A85A46C05D17992A
:101EA00090476D1C7F1C4745F6DBE0030CD55B4675
:101EB0002146179A059800F09FF9054404E0302068
:101EC0005A46179990476D1C0099481E00900029AA
:101ED000F5DC08E0029802995A460078491C029104
:101EE000179990476D1CBAF10001AAF1010AF1DCC3
:101EF00065E10000092801003031323334353637CE
:101F00003839616263646566000000003031323345
:101F100034353637383941424344454600000000E5
:101F200000F058F90544761C307800287FF4ECADB9
:101F300019B02846BDE8F08F620700D4062709F1E2
:101F4000070222F0070CFCE80223E14603F00048F8
:101F50005FEA080C02D00FF2702C0DE05FEA045C1F
:101F600002D50FF2682C07E05FEAC47C02D00FF2C2
:101F7000602C01E0AFF2700C4FF0FF3823F000430B
:101F8000CDF850C065280CD006DC452809D046287D
:101F90001DD047283DD13DE0662818D067287ED166
:101FA00038E00021112F01DB112000E0781CCDE981
:101FB000000106A90EA8FFF7DDFCDDE90F010E9A6E
:101FC00003910021009207F1010A04914DE04FF0C6
:101FD00000400097CDE9011006A90EA8FFF7CAFC42
:101FE000DDE90F0203920E9B11990022DDF80CA08F
:101FF0000093049211B9791C00EB010AB7EB0A00B7
:1020000004D4C0F1FF3007F1010A0490AAEB0700E5
:10201000019044E0012F00DA01270021112F01DD9A
:10202000112000E03846CDE9000106A90EA8FFF70F
:10203000A1FCDDE90F010E9A0391002104910092A9
:10204000BA4621070CD40399514500DA8A46BAF101
:10205000010F05DD009AAAF10101515C302908D079
:10206000B84202DA10F1040F06DA0121CDE90110BD
:1020700015E0AAF10101E9E7002805DC0499014413
:102080000491AAEB000102E0411C514500DD8A46A3
:102090000499401A401C01904FF000400290200724
:1020A00004D40198504501DBCDF8048000208DF860
:1020B0004F0002980DF14F07B0F1004F25D02B20B3
:1020C0000E9002984FF0020800280CDA404202906D
:1020D0002D200E9007E00A210298FEF7E9F9303131
:1020E000029007F8011DB8F10001A8F10108F2DC27
:1020F00002980028EFD1791E0E980870307800F011
:10210000200040F0450007F8020D12A8C01B00F1A6
:1021100007081498007800B1012000EB0A0101982B
:1021200001EBE07105984144401A401E0590E00320
:1021300006D45B462146179A059800F05DF80544E1
:102140001498007818B15A46179990476D1CE0030F
:1021500024D55B462146179A059800F04DF80544B2
:102160001CE00498002807DBDDE90301884203DD59
:102170000098405C179901E0179930205A46904723
:10218000049805F10105401C04900198401E01903F
:1021900004D12E205A46179990476D1CBAF10001C0
:1021A000AAF1010ADDDC05E017F8010B5A46179980
:1021B00090476D1CB8F10001A8F10108F4DC5B4602
:1021C0002146179A0598ABE62D0000002B00000071
:1021D000200000002DE9F041044600251E46174668
:1021E000880404D405E039462020B0476D1C641EE5
:1021F000F9D52846BDE8F0812DE9F04104460025D7
:102200001E469046C80301D5302700E020278804E9
:1022100004D505E041463846B0476D1C641EF9D52B
:102220002846BDE8F0810A68531C0B6010707047A7
:1022300040F67B4305E01A460221491C9142FCDB33
:10224000401E0028F7DC7047FEF784FBFFF764FAB6
:10225000FFF7E6F9FFF72CFAFFF7B4F90E20FFF7C6
:102260005DF90C20FFF75AF90348FEF7E3FE002161
:102270000148FFF74DF8FEE72800002000000000AD
:10228000000000000102030406070809AC22000850
:10229000000000202800000054190008D422000883
:1022A000280000204004000064190008000000001D
:1022B000000000000000000000000000000000001E
:1022C00000000000010000001000000000000000FD
:0422D0000024F400F2
:040000050800019559
:00000001FF
