:020000040800F2
:1000000050040020A9010008830E0008270E0008F4
:10001000810E0008B50200082B1000080000000047
:10002000000000000000000000000000870E000833
:10003000B702000800000000850E0008890E0008C5
:10004000C3010008C3010008C3010008C301000880
:10005000C3010008C3010008C3010008C301000870
:10006000C3010008C3010008C3010008C301000860
:10007000C3010008C3010008C3010008C301000850
:10008000C3010008C3010008C3010008000000000C
:10009000000000000000000000000000C301000894
:1000A000C3010008C3010008C3010008C301000820
:1000B000C30100081D0F0008C3010008C3010008A8
:1000C000C3010008C3010008C3010008C301000800
:1000D000C3010008C3010008C301000800000000BC
:1000E000C3010008C3010008C301000800000000AC
:1000F000000000000000000000000000C301000834
:1001000000000000C3010008C3010008C30100088B
:1001100000000000000000000000000000000000DF
:10012000C3010008C3010008C3010008C30100089F
:10013000C3010008000000000000000000000000F3
:10014000000000000000000000000000C3010008E3
:10015000C3010008C3010008C3010008C30100086F
:10016000C3010008C30100080000000000000000F7
:10017000000000000000000000000000000000007F
:1001800000000000C30100080000000000000000A3
:10019000C3010008DFF80CD000F07AF800480047EF
:1001A0006D100008500400200648804706480047AC
:1001B000FEE7FEE7FEE7FEE7FEE7FEE7FEE7FEE717
:1001C000FEE7FEE7010F0008950100082DE9F05F4A
:1001D0000546002092469B468846064681464024B6
:1001E0001BE0284641464746224600F041F8534668
:1001F0005A46C01A914110D311461846224600F0C3
:1002000028F82D1A67EB01084F46224601200021ED
:1002100000F01FF817EB00094E41201EA4F1010465
:10022000DFDC484631462A464346BDE8F09FD2B25D
:1002300001E000F8012B491EFBD270470022F6E7CF
:1002400010B513460A4604461946FFF7F0FF20464C
:1002500010BD202A04DB203A00FA02F1002070478A
:100260009140C2F1200320FA03F3194390407047F4
:10027000202A04DB203A21FA02F00021704721FAFB
:1002800002F3D040C2F12002914008431946704762
:10029000064C074D06E0E06840F0010394E80700D3
:1002A00098471034AC42F6D3FFF778FFDC10000813
:1002B000FC100008FEE770472DE9F84F00224FF0D0
:1002C000010803254FF00F0E0B6808FA02F42340D3
:1002D000A34271D14E68012E05D0022E03D0112EFB
:1002E00001D0122E15D18668570005FA07FC26EAC0
:1002F0000C06D1F80CC00CFA07FC4CEA060CC0F84E
:1003000008C04668A6430C79C4F3001494403443F3
:100310004460C668570005FA07FC8C6826EA0C069C
:10032000BC403443C4604C68022C01D0122C13D161
:10033000D40800EB8404A346D4F8209054074FEA75
:10034000D46A0EFA0AF629EA06090E6906FA0AF6CE
:1003500046EA0906CBF8206004680E7924EA0C040A
:1003600006F00306BE40264306604C68E40056D5FE
:100370002E4C266846F480462660246822F0030648
:1003800004F4804400942A4C3444A446D4F8084829
:100390009607370F0EFA07F6B443264EB04201D146
:1003A000002615E0244EB04201D1012610E0234E74
:1003B000B04202D102260BE031E0214EB04201D121
:1003C000032605E01F4EB04201D1042600E00726B7
:1003D000BE402643CCF808681B4E34684F689C43E7
:1003E000FF0300D51C433460174E361D34684F6838
:1003F0009C43BF0300D51C433460134E0836346859
:100400004F689C43FF0200D51C4334600E4E0C36EF
:1004100034684F689C43BF0200D51C433460521CB3
:10042000102AFFF451AFBDE8F88F000044380240B5
:100430000030014000000240000402400008024079
:10044000000C024000100240003C0140426931EAC9
:10045000020200D10904816170470AB181617047CD
:100460000904FBE701488068704700000000002095
:1004700002488168027811448160704700000020C2
:100480000B4810B5016841F400710160016841F446
:1004900080610160016841F480710160032000F017
:1004A0006FF8002000F006F800F024F8002010BDDE
:1004B000003C024070B50D4D04464FF47A71287827
:1004C000B1FBF0F00A490968B1FBF0F000F0E4FA82
:1004D00048B9102C07D200222146501E00F030F8F7
:1004E00000206C6070BD012070BD00000000002085
:1004F0000C0000200A4808B5016841F48041016001
:10050000006800F4804000900548001F016841F039
:1005100080510160006800F08050009008BD00002C
:1005200044380240002809DB00F01F0201219140FD
:100530004009800000F1E020C0F800117047000081
:10054000F0B40E4B1B680C46C3F30223C3F107053E
:10055000042D00D90425191D072901D2002300E02C
:10056000DB1E012606FA05F1491E214099409E40F6
:10057000761E16403143F0BC00F058BD0CED00E093
:10058000064900F0070208684FF6FF03184040EAEA
:100590000220034A10430860704700000CED00E0A1
:1005A0000000FA052DE9F0470E46050065D0DFF89A
:1005B0001481D8F80000F7B200F00F00B04207D263
:1005C00088F80070D8F8000000F00F00B04254D155
:1005D00028683D4C810712D5400703D5206840F4B8
:1005E000E05020602878000703D5206840F4604080
:1005F00020602068A96820F0F00008432060287877
:10060000C0072DD0304968680839012812D0022867
:1006100013D0032811D00968890700292DDA216831
:1006200021F0030101432160FFF71CFF814641F2E5
:10063000883A0EE009688903EFE709688901ECE769
:10064000FFF710FFA0EB0901514502D90320BDE8D7
:10065000F0872068696800F00C00B0EB810FEFD1E3
:10066000D8F80010404601F00F01B14207D90770D9
:10067000006800F00F00B04201D00120E7E72878C1
:10068000400705D52068E96820F4E0500843206061
:100690002878000706D52068296920F4604040EAE0
:1006A000C100206000F018F82168084AC1F3031166
:1006B000515CC8400649086006480068FFF7FAFE2A
:1006C0000020C4E7003C024008380240CC1000087B
:1006D0000C00002004000020154810B5006810F040
:1006E0000C02144813D01449042A0FD0082A0ED142
:1006F0000F4C241F2268236802F03F025B0207D5DB
:100700002068C0F38810A0FB010106E0084610BD78
:100710002168C1F38811A1FB00010023FFF756FDFA
:100720002168C1F30141491C4900B0FBF1F010BD43
:10073000083802400024F40040787D012DE9F84F8C
:1007400004006ED02078DFF83C93C007A9F10405BF
:100750004AD009F104000168C1F38101012908D0E0
:100760000068C0F3810002280AD1D9F800004002D5
:1007700006D52868800337D560680028E1D033E0CB
:100780006068B0F5803F10D0B0F5A02F286810D079
:1007900020F480302860286820F480202860606879
:1007A000A8B1FFF75FFE06460DE0286840F48030F0
:1007B000F4E740F480202860F7E700BFFFF752FE1F
:1007C000801B642873D828688003F7D50CE0FFF7F6
:1007D00049FE064605E000BFFFF744FE801B642883
:1007E000F0D828688003F7D42078DFF89C8280074F
:1007F0004FF0000A3ED5A348001D016811F00C0F10
:1008000008D00068C0F3810002280BD1D9F800009D
:10081000400207D42868800716D5E068012800D177
:1008200012E02BE1E068B8B10120C8F80000FFF742
:1008300019FE064605E000BFFFF714FE801B0228E4
:10084000C0D828688007F7D52868216920F0F8000B
:1008500040EAC10028600DE0C8F800A0FFF702FEE2
:10086000064604E0FFF7FEFD801B02281FD828681B
:100870008007F7D42078000722D5824E834861692B
:10088000703671B101210160FFF7ECFD074604E00D
:10089000FFF7E8FDC01B022809D830688007F7D5AC
:1008A0000EE0C0F800A0FFF7DDFD074605E082E09E
:1008B000FFF7D8FDC01B02287DD830688007F7D429
:1008C0002078400768D5DFF8BCB100270BF13C0B5E
:1008D000DBF80000C0000BD4DBF8001041F08051C1
:1008E000CBF80010DBF80000012700F080500090EA
:1008F000674E3068C00510D4306840F480703060B6
:10090000FFF7B0FD009005E0FFF7ACFD0099401A3D
:10091000022850D83068C005F6D55A4EA0686C360B
:1009200001280FD00528306810D020F00100306079
:10093000306820F004003060A068B8B1FFF792FD85
:1009400000900FE0306840F00100F4E740F0040050
:100950003060F7E7FFF786FD0099411A41F28830D1
:10096000814266D830688007F4D50EE0FFF77AFD43
:10097000009007E0FFF776FD0099411A41F28830B8
:10098000814256D830688007F4D42FB1DBF80010CC
:1009900021F08051CBF80010A069C8B33949091D76
:1009A0000968C1F3810102294AD00228504607D0C4
:1009B000C8F8600000E03CE0FFF754FD04463BE06F
:1009C0004746C8F86000FFF74DFD064605E000BF4A
:1009D000FFF748FD801B02282BD828688001F7D438
:1009E000D4E907010843A16A2A4A490802EB0141F8
:1009F000626A41EA8211084394F82C1040EA0161CE
:100A0000C9F8001001203866FFF72CFD044606E007
:100A100036E000BFFFF726FD001B022809D8286832
:100A20008001F7D52CE000BFFFF71CFD001B02285A
:100A300002D90320BDE8F88F28688001F4D41FE0B4
:100A40000128F7D0D9F80000E26900F48001914252
:100A500014D1226A00F03F0191420FD147F6C071D4
:100A6000626A0140914209D1A26A00F44031914288
:100A700004D1E16A00F07060884201D00120D9E71A
:100A80000020D7E70438024000004742800E47426A
:100A9000007000400000FFFF10B5401EB0F1807FE5
:100AA00001D3012010BD4FF0E02460610F216017D9
:100AB00000F0BCFA0020A06107202061002010BDDA
:100AC0007047704770B590F83C20012A2CD0012463
:100AD00080F83C40022280F83D2003685A689D68F7
:100AE00022F070060A6832435A60104B02689A423C
:100AF0000ED0B2F1804F0BD00D4B9A4208D00D4B67
:100B00009A4205D00C4B9A4202D00C4B9A4204D127
:100B1000496825F080031943916080F83D40002129
:100B200080F83C10084670BD022070BD00000140F6
:100B30000004004000080040000C0040004001405C
:100B400010B5040003D094F83D0010B107E0012077
:100B500010BD002084F83C00204600F00DF8022073
:100B600084F83D00211D206800F0DEF9012084F8A2
:100B70003D00002010BD000008B500680B49884208
:100B800012D10B48016841F00201016000680022A7
:100B900000F00200009011461D20FFF7D1FCBDE8D7
:100BA00008401D20FFF7BEBC08BD00000004004047
:100BB000403802400168CA6842F00102CA60006819
:100BC000816801F00701062903D0016841F00101A5
:100BD00001600020704770B5044690F83C00012881
:100BE00017D0012584F83C50022084F83D0020688D
:100BF000826822F0770222F47F42826008685028DF
:100C000030D00DDC20284DD005DC98B310283BD126
:100C100048E0022070BD302844D0402834D139E06B
:100C2000602828D0702806D0B0F5805F2CD0B0F5B1
:100C3000005F29D10AE0CB68D1E90121206800F0EA
:100C4000BFF92068816841F0770109E0CB68D1E9FC
:100C50000121206800F0B4F92068816841F48041E6
:100C6000816011E0CA684968206800F0BBF9502132
:100C7000206807E016E0CA684968206800F0C3F9F8
:100C80006021206800F0A6F984F83D50002084F827
:100C90003C0070BDCA684968206800F0A3F9402193
:100CA0002068EFE7226801461046EBE7704770B511
:100CB0000446006801694FF00005C943890715D44F
:100CC000C168C943890711D4E91E01610120207759
:100CD000206880698007204602D0FFF7E7FF04E024
:100CE00000F098F8204600F096F825772068016912
:100CF000C943490717D4C168C943490713D46FF0E2
:100D000004010161022020772068806910F4407F8F
:100D1000204602D0FFF7CAFF04E000F07BF820462F
:100D200000F079F8257720680169C943090716D4CE
:100D3000C168C943090712D46FF00801016104209A
:100D400020772068C0698007204602D0FFF7AEFFF9
:100D500004E000F05FF8204600F05DF82577206899
:100D60000169C943C90617D4C168C943C90613D468
:100D70006FF010010161082020772068C06910F42D
:100D8000407F204602D0FFF791FF04E000F042F8D8
:100D9000204600F040F8257720680169C943C9075B
:100DA00008D1C168C943C90704D1891E0161204621
:100DB00000F032F820680169C943090609D4C16806
:100DC000C943090605D46FF0800101612046FFF791
:100DD00077FE20680169C943490609D4C168C9433F
:100DE000490605D46FF040010161204600F01AF871
:100DF00020680169C94389060BD4C168C9438906C3
:100E000007D46FF0200101612046BDE87040FFF774
:100E100058BE70BD7047704720210148FFF716BBD0
:100E2000000002407047FEE710B586B0002413486A
:100E3000009401940294039404940F490594016072
:100E40004FF47A71C0E901144FF44861C0E903140A
:100E500080218161FFF774FE4FF480500090694655
:100E60000648FFF7B8FE049404A904480594FFF768
:100E700029FE06B010BD0000000400401000002054
:100E8000FEE7704770477047FFF7F2BA10B592B0AF
:100E900030216846FFF7D2F914210CA8FFF7CEF9EC
:100EA00015480024016841F080510160006800F09D
:100EB000805011901148016821F4404141F40041F3
:100EC00001600068069400F44040119002200090F8
:100ED00001200390102004906846FFF72FFC0F209C
:100EE000CDE90C040E940F9400210CA81094FFF788
:100EF00059FB12B010BD00004038024000700040A5
:100F00000548016841F47001016003494FF0006039
:100F1000803908607047000088ED00E00148FFF765
:100F2000C6BE000010000020F0B502681D4B1E4C2C
:100F30009F031E4D1E4E984207D0B84205D0A042D6
:100F400003D0A84201D0B04204D122F0700C4A680C
:100F500042EA0C02984210D0B8420ED0A0420CD007
:100F6000A8420AD0B04208D0124CA04205D0124C80
:100F7000A04202D0114CA04203D122F44074CA68AE
:100F800022434C6922F08002224302608A68C262D6
:100F90000A688262984201D10969016301214161B5
:100FA000F0BD0000000001400004004000080040C7
:100FB000000C004000400140004401400048014056
:100FC00010B5846842EA032224F47F440A43224392
:100FD000826010BD826822F070020A4342F007016D
:100FE0008160704710B5036A046A24F0010404624A
:100FF000846924F0F00444EA021423F00A020A434C
:101000008461026210BD10B5036A23F0100303620D
:101010008369046A23F4704343EA023224F0A00394
:1010200043EA01118261016210BDFEE70907090E62
:10103000002804DB00F1E02080F80014704700F085
:101040000F0000F1E02080F8141D704702E008C88E
:10105000121F08C1002AFAD170477047002001E032
:1010600001C1121F002AFBD17047000086B0FFF7B4
:1010700007FAFFF70BFF14216846FFF7DFF8104867
:101080000024016841F00101016000680D4D00F08D
:1010900001000590224620212846FFF7DEF9202096
:1010A00000900120CDE90104694628460394FFF72A
:1010B00003F9FFF7B9FE0448FFF77CFDFEE70000E7
:1010C0003038024000000240100000200000000004
:1010D000000000000102030406070809FC100008D4
:1010E00000000020100000004C1000080C11000847
:1010F00010000020400400005C1000080100000007
:0C11000010000000000000000024F400BB
:040000050800019559
:00000001FF
