:020000040800F2
:10000000A0040020A90100086B1900082F170008A0
:10001000691900087D080008071B0008000000009F
:100020000000000000000000000000006F19000840
:100030007F080008000000006D1900087119000811
:10004000C3010008C3010008C3010008C301000880
:10005000C3010008C3010008C3010008C301000870
:10006000C3010008C3010008C3010008C301000860
:10007000C3010008C3010008C3010008C301000850
:10008000C3010008C3010008490700080000000080
:10009000000000000000000000000000C301000894
:1000A000C3010008C3010008C3010008C301000820
:1000B000C3010008C3010008C3010008C301000810
:1000C000C3010008C3010008C3010008C301000800
:1000D000C3010008C3010008C301000800000000BC
:1000E000C3010008C3010008C301000800000000AC
:1000F000000000000000000000000000C301000834
:1001000000000000C3010008C3010008C30100088B
:1001100000000000000000000000000000000000DF
:10012000C3010008C3010008C3010008C30100089F
:10013000C3010008000000000000000000000000F3
:10014000000000000000000000000000C3010008E3
:10015000C3010008C3010008C3010008C30100086F
:10016000C3010008C30100080000000000000000F7
:10017000000000000000000000000000000000007F
:1001800000000000C30100080000000000000000A3
:10019000C3010008DFF80CD000F0C4FA00480047A3
:1001A00045240008A0040020064880470648004770
:1001B000FEE7FEE7FEE7FEE7FEE7FEE7FEE7FEE717
:1001C000FEE7FEE7E9190008950100082DE9F05F58
:1001D0000546002092469B468846064681464024B6
:1001E0001BE0284641464746224600F0ECF95346BC
:1001F0005A46C01A914110D311461846224600F0C3
:10020000D3F92D1A67EB01084F4622460120002141
:1002100000F0CAF917EB00094E41201EA4F10104B9
:10022000DFDC484631462A464346BDE8F09FD2B25D
:1002300001E000F8012B491EFBD270470022F6E7CF
:1002400010B513460A4604461946FFF7F0FF20464C
:1002500010BD2DE9FE4F804681EA0300C00F0C4619
:10026000009021F0004123F00045B8EB0200A941C5
:1002700005D24046214690461C460B46024623F0D6
:100280000040104347D0270DC7F30A00C3F30A51BB
:100290000290401A019040286BDAC3F3130040F437
:1002A000801B0098924620B10023D2EB030A63EB37
:1002B0000B0B01985946C0F14002504600F074F90A
:1002C00006460D4650465946019A00F08CF910EB4F
:1002D00008006141002487EA115284EAE7731A4357
:1002E00040D0009A62B3019A012A4FEA075215DC06
:1002F000001B61EB02014FF0004202EA0752CDE918
:100300000042001C41F5801132462B4600F08CF96A
:1003100003B0BDE8F08F40462146F9E7001B61EBD2
:100320000201001C41F5801300185B412018A2F562
:10033000001747EB030140EAD570B6196D4111E093
:100340006D084FEA360645EAC0754FEA0752001BB2
:1003500061EB0201001C41F5801149084FEA3000B1
:100360000019514132462B4603B0BDE8F04F00F072
:100370004CB90098012240000023D0EB020263EB4D
:10038000E073009821464FEAE074B8EB000061EB9F
:100390000401E9E783F000435BE781F0004158E79F
:1003A0002DE9FE4F81EA030404F0004421F00041EE
:1003B00000944FF0000B23F0004350EA01045ED09C
:1003C00052EA03045BD0C3F30A54C1F30A552C4428
:1003D000A4F2F3340194A0FB0254C1F3130141F4DD
:1003E0008011C3F3130343F4801301FB024400FBA9
:1003F000034E840A970A44EA815447EA8357A4FBD0
:10040000076802958D0A05FB07854FEA932C04FBCC
:100410000C542705029D4FEA065847EA1637B5EBFC
:1004200008056EEB070C870E920E47EA811742EA29
:100430008312A7FB0201B6EB0B0164EB00042B0D4A
:1004400043EA0C335E1844EB1C50DA465146E7FB96
:100450000201C5F313044FEA0B3343EA14534FEA86
:100460000432019C43EA0603A4F10C040294009CAC
:10047000CDE900B400F0D8F803B0BDE8F08F00205B
:100480000146F9E72DE9F04D81EA030404F0004B41
:1004900021F0004514464FF0000A23F0004150EAD5
:1004A000050220D054EA01021DD0C5F30A570246C6
:1004B000C5F31303C1F31300C1F30A5640F48015CA
:1004C00043F48013A7EB0608101BD64608F2FD384C
:1004D00073EB050002D308F1010801E092185B41BB
:1004E000B8F1000F03DA00200146BDE8F08D0020CE
:1004F0004FF48011064684460EE0171B73EB050788
:1005000005D3121B63EB050306434CEA010C4908B3
:100510004FEA300092185B4150EA0107EDD152EAF0
:10052000030012D082EA040083EA0501084305D0E3
:10053000101BAB4106D20122002306E000224FF03F
:10054000004302E06FF0010253101AEB06004CEB7F
:10055000085110EB0A0041EB0B01BDE8F04D00F033
:1005600054B80EB540F2334102910021CDE900119B
:100570000A460B4600F058F803B000BD30B50B46F4
:10058000014600202022012409E021FA02F59D42C3
:1005900005D303FA02F5491B04FA02F52844151E97
:1005A000A2F10102F1DC30BD202A04DB203A00FA7E
:1005B00002F1002070479140C2F1200320FA03F3BA
:1005C000194390407047202A04DB203A21FA02F0B8
:1005D0000021704721FA02F3D040C2F1200291407D
:1005E000084319467047202A06DBCB17203A41FA08
:1005F00002F043EAE07306E041FA02F3D040C2F1B0
:100600002002914008431946704710B5141E73F13B
:10061000000408DA401C41F1000192185B411A43C2
:1006200001D120F0010010BD2DE9F04D92469B460E
:1006300011B1B1FA81F202E0B0FA80F220329046B4
:10064000FFF7B2FF04460F4640EA0A0041EA0B01F9
:1006500053465A46084313D0114653EA010019D0B5
:10066000C8F140025046FFF7AEFF05460E46504621
:1006700059464246FFF798FF084305D0012004E0A1
:1006800020463946BDE8F08D0020054346EAE07675
:100690002C4337430A986305E40AA0EB08000022C4
:1006A000FD0A44EA47540A3002D500200146E9E732
:1006B000010510196941DDE9084500196941BDE8E6
:1006C000F04DA2E7C1F30A52C1F3130140F2FF3328
:1006D00041F480119A4202DA00200146704740F24C
:1006E00033439A42A2F2334202DC5242FFF76BBF1D
:1006F000FFF75ABF30B5041E71F1000404DB4FF060
:100700000044404264EB0101141E73F1000405DB58
:100710001C464FF00043524263EB0403994208BF6A
:10072000904230BD064C074D06E0E06840F0010302
:1007300094E8070098471034AC42F6D3FFF72EFD3B
:1007400080240008A0240008014800F0BDB9000082
:1007500014000020464910B54A6822F440324A602D
:100760004A6843681A434A6001684A6822F4807202
:100770004A6001684A68036942EA03224A600168E4
:100780004A6822F040724A6001684A6883681A43E6
:100790004A6001688A6822F400628A6001688A6897
:1007A000C3681A438A60816A6FF07062D14201683F
:1007B0008A6822F070628A6001688A680CD0836A55
:1007C0001A438A6001688A6822F040528A60016890
:1007D0008A68C36A1A4301E022F040528A600168C5
:1007E0008A6822F002028A6001688A68037E42EA0F
:1007F00043028A6090F82010002901684A680FD0EF
:1008000042F400624A6001684A6822F460424A6029
:1008100001684A68174C436A04EB43331A4301E00A
:1008200022F400624A600168CA6A22F47002CA6255
:100830000168CA6A838B104C04EB03531A43CA62E3
:1008400001688A6822F400728A6001688A6890F8F8
:10085000303042EA43228A6001688A6822F480626A
:100860008A6001688A68406942EA8020886010BD19
:100870000023014000E0FFFF0000F0FFFEE77047AB
:100880002DE9F041002401250F4680462E4606FA48
:1008900004F03D4281B201D1002200E00122404635
:1008A00000F028FB6806641C050EE4B2102CEED3A1
:1008B000BDE8F0817047000078B50024009490F8FE
:1008C0003C20012A19D0012280F83C200A68072325
:1008D0000568092A13D9EE680A3A02EB42029340EE
:1008E0009E43EE600B788A680A3B03EB43039A4011
:1008F0000368DD682A43DA6010E0022078BD2E69C3
:1009000002EB420293409E432E610B788A6803EB10
:1009100043039A4003681D692A431A614A681F23EA
:10092000072A13D205686E6B521E02EB82029340B7
:100930009E436E630B790A885B1E92B203EB8303BE
:100940009A4003685D6B2A435A6327E005680D2AC5
:1009500012D22E6BD21F02EB820293409E432E6373
:100960000B790A88DB1F92B203EB83039A4003687A
:100970001D6B2A431A6311E0EE6A0D3A02EB820204
:1009800093409E43EE620B790A880D3B92B203EBD3
:1009900083039A400368DD6A2A43DA62164B0568CE
:1009A000144A9D4206D10D68122D03D1556845F4B5
:1009B0008005556005689D4218D10B68102B01D049
:1009C000112B13D1536843F40003536009681029B5
:1009D0000CD10A490A4A0968B1FBF2F101EB810125
:1009E000490000E0491E00910029FBD180F83C40FD
:1009F000002078BD002301400020014010000020AD
:100A000040420F0010B51C4800F05BF8FFF7A9FD4D
:100A10009FED1A1B53EC112BFFF734FD9FED191BB3
:100A200053EC112BFFF7BCFC9FED181B53EC112B63
:100A3000FFF7B0FC9FED171B53EC112BFFF722FDC6
:100A40009FED161B53EC112BFFF703FC41EC100B31
:100A500014A153EC102B154801F056F8012000F0BA
:100A600067FE13A000F0DFFEC02000F061FEBDE8CD
:100A700010400E4800F0D7BE140000200000000017
:100A800000FEAF406666666666660A4052B81E851E
:100A9000EB51E83F7B14AE47E17A643F0000000071
:100AA00000003940252E316C660000000000002057
:100AB00054656D70657261747572653A200000004E
:100AC00070470068C06C704770B5044600680168E4
:100AD0004268C1F34001C2F3401251B34AB3216CE2
:100AE000C90603D4216C41F400712164816811F0BE
:100AF000405F17D1217EA9B9C16A11F4700F02D0ED
:100B0000816849050ED4416821F020014160206CC4
:100B100020F480702064206CC00403D4206C40F06A
:100B2000010020642046FFF76DFF21686FF012007E
:100B30000860206801684268C1F38001C2F3C012F6
:100B400089B382B3216CC90603D4216C41F40051EE
:100B50002164816811F4401F1ED1816B11F4401F84
:100B600002D08168490517D44168490514D48168C9
:100B700011F0405F10D1217E71B9416821F08001F0
:100B80004160206C20F480502064206CC00503D4A8
:100B9000206C40F0010020642046FFF78BFE2168A6
:100BA0006FF00C00086020680168426811F0010FC6
:100BB000C2F380120ED06AB10068C0070AD0206C60
:100BC00040F480302064204600F046F821686FF041
:100BD00001000860206801684268C1F34011C2F357
:100BE000806200290DD0002A0BD0616C41F0020117
:100BF00061646FF0200505602046FFF761FF206803
:100C0000056070BD70B504004FF0000503D0206C86
:100C1000002610B107E0012070BD204600F01EF84C
:100C2000666484F83C60206CC00610D4206C20F40C
:100C3000885040F0020020642046FFF78BFD666478
:100C4000206C20F0020040F00100206400E001254B
:100C500084F83C60284670BD7047000008B5006805
:100C60000B49884212D10B48016841F48071016040
:100C70000068002200F4807000901146122000F0FD
:100C8000ADF9BDE80840122000F09AB908BD000097
:100C9000002001404438024018B50021009190F82E
:100CA0003C20012A07D0012280F83C20026893688A
:100CB000DB0702D011E0022018BD936843F0010366
:100CC0009360224A224B1268B2FBF3F202EB42021B
:100CD00000E0521E0092002AFBD102689368DB07F5
:100CE00032D0036C40F20164A34343F48073036485
:100CF00053685B0505D5036C23F4005343F480531C
:100D00000364036CDB0404D5436C23F006034364E3
:100D100000E0416480F83C100E4B6FF0220111603E
:100D200001684A680C4C22434A6059680068C90649
:100D300002D00A49884207D1816811F0405F03D18F
:100D4000816841F080418160002018BD10000020C2
:100D500040420F0000230140200000040020014019
:100D60002DE9F84F00224FF0010803254FF00F0E38
:100D70000B6808FA02F42340A34271D14E68012E99
:100D800005D0022E03D0112E01D0122E15D1866867
:100D9000570005FA07FC26EA0C06D1F80CC00CFA3D
:100DA00007FC4CEA060CC0F808C04668A6430C795C
:100DB000C4F30014944034434460C668570005FAF5
:100DC00007FC8C6826EA0C06BC403443C4604C68BF
:100DD000022C01D0122C13D1D40800EB8404A346BA
:100DE000D4F8209054074FEAD46A0EFA0AF629EA9A
:100DF00006090E6906FA0AF646EA0906CBF82060EB
:100E000004680E7924EA0C0406F00306BE4026436B
:100E100006604C68E40056D52E4C266846F48046A1
:100E20002660246822F0030604F4804400942A4CCF
:100E30003444A446D4F808489607370F0EFA07F64C
:100E4000B443264EB04201D1002615E0244EB042F4
:100E500001D1012610E0234EB04202D102260BE060
:100E600031E0214EB04201D1032605E01F4EB042D1
:100E700001D1042600E00726BE402643CCF80868CE
:100E80001B4E34684F689C43FF0300D51C433460FD
:100E9000174E361D34684F689C43BF0300D51C4372
:100EA0003460134E083634684F689C43FF0200D507
:100EB0001C4334600E4E0C3634684F689C43BF02AE
:100EC00000D51C433460521C102AFFF451AFBDE81A
:100ED000F88F00004438024000300140000002401A
:100EE0000004024000080240000C024000100240D2
:100EF000003C01400AB1816170470904FBE7000032
:100F000001488068704700000400002002488168A2
:100F10000278114481607047040000200B4810B52E
:100F2000016841F400710160016841F48061016071
:100F3000016841F480710160032000F06FF8002027
:100F400000F006F800F024F8002010BD003C02403C
:100F500070B50D4D04464FF47A712878B1FBF0F06E
:100F60000A490968B1FBF0F000F0E4FA48B9102C26
:100F700007D200222146501E00F030F800206C609D
:100F800070BD012070BD0000040000201000002092
:100F90000A4808B5016841F480410160006800F426
:100FA000804000900548001F016841F080510160B9
:100FB000006800F08050009008BD000044380240F6
:100FC000002809DB00F01F02012191404009800048
:100FD00000F1E020C0F8001170470000F0B40E4BA3
:100FE0001B680C46C3F30223C3F10705042D00D987
:100FF0000425191D072901D2002300E0DB1E01266C
:1010000006FA05F1491E214099409E40761E164081
:101010003143F0BC00F08CBD0CED00E0064900F05F
:10102000070208684FF6FF03184040EA0220034A0F
:1010300010430860704700000CED00E00000FA0566
:101040002DE9F0470E46050065D0DFF81481D8F889
:101050000000F7B200F00F00B04207D288F800702D
:10106000D8F8000000F00F00B04254D128683D4C81
:10107000810712D5400703D5206840F4E050206076
:101080002878000703D5206840F46040206020687D
:10109000A96820F0F000084320602878C0072DD010
:1010A000304968680839012812D0022813D0032873
:1010B00011D00968890700292DDA216821F0030180
:1010C00001432160FFF71CFF814641F2883A0EE0A0
:1010D00009688903EFE709688901ECE7FFF710FF6A
:1010E000A0EB0901514502D90320BDE8F087206833
:1010F000696800F00C00B0EB810FEFD1D8F8001058
:10110000404601F00F01B14207D90770006800F0B6
:101110000F00B04201D00120E7E72878400705D54D
:101120002068E96820F4E050084320602878000730
:1011300006D52068296920F4604040EAC10020609B
:1011400000F018F82168084AC1F30311515CC84047
:101150000649086006480068FFF7FAFE0020C4E769
:10116000003C0240083802407024000810000020B3
:1011700008000020154810B5006810F00C02144853
:1011800013D01449042A0FD0082A0ED10F4C241F63
:101190002268236802F03F025B0207D52068C0F393
:1011A0008810A0FB010106E0084610BD2168C1F3CC
:1011B0008811A1FB00010023FFF708F82168C1F3A3
:1011C0000141491C4900B0FBF1F010BD0838024054
:1011D0000024F40040787D012DE9F84F04006ED022
:1011E0002078DFF83C93C007A9F104054AD009F143
:1011F00004000168C1F38101012908D00068C0F32F
:10120000810002280AD1D9F80000400206D52868DA
:10121000800337D560680028E1D033E06068B0F51E
:10122000803F10D0B0F5A02F286810D020F4803077
:101230002860286820F4802028606068A8B1FFF743
:101240005FFE06460DE0286840F48030F4E740F485
:1012500080202860F7E700BFFFF752FE801B64285C
:1012600073D828688003F7D50CE0FFF749FE0646DF
:1012700005E000BFFFF744FE801B6428F0D8286813
:101280008003F7D42078DFF89C8280074FF0000AB3
:101290003ED5A348001D016811F00C0F08D000686E
:1012A000C0F3810002280BD1D9F80000400207D416
:1012B0002868800716D5E068012800D112E02BE1EC
:1012C000E068B8B10120C8F80000FFF719FE064633
:1012D00005E000BFFFF714FE801B0228C0D8286875
:1012E0008007F7D52868216920F0F80040EAC1009E
:1012F00028600DE0C8F800A0FFF702FE064604E0F3
:10130000FFF7FEFD801B02281FD828688007F7D44E
:101310002078000722D5824E83486169703671B10A
:1013200001210160FFF7ECFD074604E0FFF7E8FD4F
:10133000C01B022809D830688007F7D50EE0C0F836
:1013400000A0FFF7DDFD074605E082E0FFF7D8FDCE
:10135000C01B02287DD830688007F7D4207840076A
:1013600068D5DFF8BCB100270BF13C0BDBF80000BF
:10137000C0000BD4DBF8001041F08051CBF8001016
:10138000DBF80000012700F080500090674E3068C5
:10139000C00510D4306840F480703060FFF7B0FDB5
:1013A000009005E0FFF7ACFD0099401A022850D8E4
:1013B0003068C005F6D55A4EA0686C3601280FD0AB
:1013C0000528306810D020F001003060306820F02F
:1013D00004003060A068B8B1FFF792FD00900FE004
:1013E000306840F00100F4E740F004003060F7E7B7
:1013F000FFF786FD0099411A41F28830814266D894
:1014000030688007F4D50EE0FFF77AFD009007E022
:10141000FFF776FD0099411A41F28830814256D893
:1014200030688007F4D42FB1DBF8001021F0805130
:10143000CBF80010A069C8B33949091D0968C1F388
:10144000810102294AD00228504607D0C8F860001E
:1014500000E03CE0FFF754FD04463BE04746C8F897
:101460006000FFF74DFD064605E000BFFFF748FDB1
:10147000801B02282BD828688001F7D4D4E9070103
:101480000843A16A2A4A490802EB0141626A41EA1B
:101490008211084394F82C1040EA0161C9F8001049
:1014A00001203866FFF72CFD044606E036E000BF59
:1014B000FFF726FD001B022809D828688001F7D510
:1014C0002CE000BFFFF71CFD001B022802D90320FF
:1014D000BDE8F88F28688001F4D41FE00128F7D018
:1014E000D9F80000E26900F48001914214D1226A27
:1014F00000F03F0191420FD147F6C071626A01408E
:10150000914209D1A26A00F44031914204D1E16ACA
:1015100000F07060884201D00120D9E70020D7E7B1
:101520000438024000004742800E474200700040ED
:101530000000FFFF10B5401EB0F1807F01D30120F5
:1015400010BD4FF0E02460610F21601700F0F0FA49
:101550000020A06107202061002010BD70B590F828
:101560003C20012A2CD0012480F83C40022280F843
:101570003D2003685A689D6822F070060A6832436D
:101580005A60104B02689A420ED0B2F1804F0BD0D5
:101590000D4B9A4208D00D4B9A4205D00C4B9A4203
:1015A00002D00C4B9A4204D1496825F080031943BC
:1015B000916080F83D40002180F83C10084670BDE5
:1015C000022070BD000001400004004000080040FF
:1015D000000C00400040014010B5040003D094F816
:1015E0003D0010B107E0012010BD002084F83C0050
:1015F000204600F00DF8022084F83D00211D2068EF
:1016000000F000FA012084F83D00002010BD000029
:1016100008B50068B0F1804F08D10548016841F075
:1016200001010160006800F00100009008BD0000A9
:1016300040380240022180F83D1001688A6802F0BB
:101640000702062A03D00A6842F001020A6001215B
:1016500080F83D100020704770B5044690F83C00BB
:10166000012817D0012584F83C50022084F83D0061
:101670002068826822F0770222F47F428260086844
:10168000502830D00DDC20284DD005DC98B3102830
:101690003BD148E0022070BD302844D0402834D1EE
:1016A00039E0602828D0702806D0B0F5805F2CD0B3
:1016B000B0F5005F29D10AE0CB68D1E901212068AB
:1016C00000F0ECF92068816841F0770109E0CB680F
:1016D000D1E90121206800F0E1F92068816841F436
:1016E0008041816011E0CA684968206800F0E8F92B
:1016F0005021206807E016E0CA684968206800F0B9
:10170000F0F96021206800F0D3F984F83D50002002
:1017100084F83C0070BDCA684968206800F0D0F9C0
:1017200040212068EFE7226801461046EBE7FEE71C
:1017300070B5134D0446002220212846FFF7DAFB3E
:10174000002240212846FFF7D5FB21460D48FFF730
:1017500097F8012280212846FFF7CCFB012000F0FA
:1017600065FE002280212846FFF7C4FB042C01D22D
:10177000022000E00120BDE8704000F057BE0000EC
:10178000000402400008024070B5114D04460122D9
:1017900020212846FFF7AEFB002240212846FFF714
:1017A000A9FB21460B48FFF76BF801228021284650
:1017B000FFF7A0FB012000F039FE0022802128461F
:1017C000FFF798FBBDE87040012000F02FBE00003D
:1017D000000402400008024010B51E2000F026FE62
:1017E0003020FFF7A5FF0A2000F020FE3020FFF791
:1017F0009FFF012000F01AFE3020FFF799FF3820EC
:10180000FFF796FF0620FFF793FF0120FFF790FFF9
:101810000F20FFF78DFF0E20FFF78AFFBDE8104075
:101820000C20FFF785BF70B50546002403E0FFF7E5
:10183000ABFF641CE4B2285D0028F8D170BD000045
:101840007FB5002412480094019402940F49039438
:10185000C0E90014846001250461057680F8204009
:101860002907C162C5614FF0C061C460816280F820
:1018700030404561FFF7C6F91020CDE90005694603
:1018800002940348FFF718F87FBD000000200140D4
:1018900014000020F0B587B014216846FEF7CEFC96
:1018A00019480024016841F004010160016801F059
:1018B00004010591016841F0020101600068134EC6
:1018C00000F0020005902246FF213046FFF712FB90
:1018D0000F4F0022E0213846FFF70CFBFF2000905D
:1018E0000125CDE90154694630460394FFF738FAE3
:1018F000E0200090CDE90154694638460394FFF793
:101900002FFA07B0F0BD0000303802400008024056
:101910000004024010B586B00024124800940194DF
:101920000294039404944FF08041059401604FF4B5
:101930007A71C0E901140901C0E9031480218161B1
:10194000FFF74AFE4FF48050009069460548FFF7C4
:1019500083FE2020CDE9040404A90248FFF7FEFD20
:1019600006B010BD5C000020FEE77047704770476E
:10197000FFF7CCBA10B592B030216846FEF75EFC96
:1019800014210CA8FEF75AFC15480024016841F008
:1019900080510160006800F080501190114801688A
:1019A00021F4404141F4004101600068069400F4D4
:1019B00040401190022000900120039010200490DC
:1019C0006846FFF709FC0F20CDE90C040E940F9434
:1019D00000210CA81094FFF733FB12B010BD0000DB
:1019E00040380240007000400548016841F4700131
:1019F000016003494FF000608039086070470000C3
:101A000088ED00E0F0B502681D4B1E4C9F031E4D93
:101A10001E4E984207D0B84205D0A04203D0A8423B
:101A200001D0B04204D122F0700C4A6842EA0C02A4
:101A3000984210D0B8420ED0A0420CD0A8420AD092
:101A4000B04208D0124CA04205D0124CA04202D0A5
:101A5000114CA04203D122F44074CA6822434C695D
:101A600022F08002224302608A68C2620A688262AF
:101A7000984201D10969016301214161F0BD000073
:101A8000000001400004004000080040000C00403D
:101A900000400140004401400048014010B5846806
:101AA00042EA032224F47F440A432243826010BDA9
:101AB000826822F070020A4342F007018160704799
:101AC00010B5036A046A24F001040462846924F0F6
:101AD000F00444EA021423F00A020A438461026219
:101AE00010BD10B5036A23F0100303628369046A12
:101AF00023F4704343EA023224F0A00343EA0111C5
:101B00008261016210BDFEE70FB4084B10B504A955
:101B100002AA039800F0EEF8044602A9002000F0A3
:101B200080FC204610BC5DF814FB00002324000854
:101B30000907090E002804DB00F1E02080F80014FA
:101B4000704700F00F0000F1E02080F8141D70478E
:101B500002E008C8121F08C1002AFAD17047704776
:101B6000002001E001C1121F002AFBD170470000D4
:101B70002DE9FF5F82B00021DDE90430020DDDF8C0
:101B800040B0034318D044F61050A2F2FF32424353
:101B90001514119801281FD0A5EB0B00401C5FEA1B
:101BA000000A4FF000064E4FDFF83891B04650461D
:101BB00015D5CAF1000413E0119801244AA30128A5
:101BC00001D16FEA0B010298119AC0E90031C0E916
:101BD000024206B0BDE8F09FCBF10000DFE704460B
:101BE0000021404A491842EB0450CDE9001012E0B0
:101BF000E00707D032463B4640464946FEF7D0FB59
:101C00008046894632463B4610461946FEF7C8FBD9
:101C100006460F466410002CEAD1DDE90401DDE937
:101C20000023BAF1000F06DAFEF7BAFB42464B4634
:101C3000FEF7B6FB05E0FEF725FC42464B46FEF7F5
:101C400021FC04460E460022284BFEF753FD03D824
:101C50004FF0FF30014607E00022254B2046314679
:101C6000FEF7F7FAFEF72EFD102409E0002C0ADB40
:101C70000A220023FEF7AAFA039B30321A55641E8B
:101C800050EA0102F2D1641C039AC4F11103144416
:101C9000119A012A03D0012208430DD10AE008431A
:101CA00004D000204FF0110B119072E7A3EB0B054D
:101CB0006D1E0DE05B4504DD4FF0000205F10105EE
:101CC00004E003DA4FF00002A5F10105002AECD090
:101CD00002981199C0E90231C0E9004579E7000096
:101CE000000014400000F03F300000000000F0430E
:101CF0000000E03F2DE9FF4F95B09B468946064620
:101D000000250FE2252877D100242746F84A012133
:101D1000059400E0044316F8013F203B01FA03F06C
:101D20001042F7D130782A2811D06FF02F03307885
:101D3000A0F13002092A16D8059A44F0020402EBF9
:101D4000820203EB42021044761C0590EFE759F83B
:101D5000042B0592002A03DA504244F40054059003
:101D600044F00204761C30782E2816D116F8010FA4
:101D700044F004042A280DD06FF02F023078A0F12F
:101D80003003092B09D807EB870302EB4303C7187D
:101D9000761CF3E759F8047B761C30786C280FD05A
:101DA00006DC4C2817D068280DD06A2814D104E02E
:101DB000742810D07A280FD10DE044F400140AE002
:101DC00044F4801401E044F440147278824202D159
:101DD00004F58014761C761C307866280BD013DC52
:101DE000582877D009DC002875D04528F6D0462839
:101DF000F4D047281AD19DE118E0632835D0642833
:101E000079D0652812D195E1702873D008DC672855
:101E1000F1D069286FD06E280DD06F2806D1B5E0BB
:101E200073282CD0752875D0782874D05A46179905
:101E300090476D1C75E1C4F30250022809D00328B5
:101E40000DD0D9F8001004280DD00D6009F1040957
:101E500067E1D9F80010EA17C1E90052F6E7D9F8AE
:101E600000100D80F2E70D70F0E719F8041B8DF8F3
:101E7000001000208DF80100EA46012003E059F827
:101E800004AB4FF0FF3061074FF0000102D40DE0CA
:101E900008F101018846B9420FDA8045F8DB1AF8EB
:101EA00008100029F4D108E008F1010188468142B8
:101EB000FADB1AF808100029F6D105985B46A0EB6A
:101EC000080721463846179A00F094FA284400EB98
:101ED000080507E04DE029E10DE01AF8010B5A462C
:101EE00017999047B8F10108F7D25B46214638466A
:101EF000179A13E142E00A220092C4F302524FF013
:101F0000000A022A08D059F804CB032A4FEAEC71E0
:101F10000AD00DE029E02AE009F1070121F00702CB
:101F2000F2E802C1914609E00FFA8CFC4FEAEC712D
:101F3000042A03D14FFA8CFC4FEAEC71002907DA2E
:101F40000A460021DCF1000C61EB02012D2202E0C7
:101F5000220504D52B228DF80420012203E0E2079C
:101F600001D02022F7E7904659E00A2102E0102232
:101F70000DE010214FF0000A00910BE010224FF00D
:101F8000000A44F004040827009203E008224FF0FE
:101F9000000A0092C4F30252022A05D059F804CB79
:101FA0000021032A08D009E009F1070121F0070206
:101FB000F2E802C1914605E01FFA8CFC042A01D127
:101FC0000CF0FF0C4FF00008220728D5702806D02F
:101FD000009B83F0100353EA0A0305D00EE0402271
:101FE0008DF80420012208E05CEA010206D03022CC
:101FF0008DF804208DF8050002229046009B83F0A6
:10200000080353EA0A030AD15CEA010201D162071C
:1020100005D530228DF804204FF001087F1E582886
:1020200004D034A003900EA802900DE036A0F9E78A
:1020300053466046009AFEF7C9F884460398825CCE
:102040000298401E029002705CEA0100F0D10298F2
:1020500006A9081A00F1200A600702D524F480348A
:1020600000E00127574502DDA7EB0A0000E0002051
:1020700000EB0A01009005984144401A0590E003E6
:1020800006D45B462146179A059800F0B3F905443B
:10209000002706E001A85A46C05D179990476D1CBD
:1020A0007F1C4745F6DBE0030CD55B462146179ABB
:1020B000059800F09FF9054404E030205A4617992E
:1020C00090476D1C0099481E00900029F5DC08E03F
:1020D000029802995A460078491C02911799904734
:1020E0006D1CBAF10001AAF1010AF1DC65E1000002
:1020F00009280100303132333435363738396162DE
:1021000063646566000000003031323334353637A1
:1021100038394142434445460000000000F058F978
:102120000544761C307800287FF4ECAD19B02846C1
:10213000BDE8F08F620700D4062709F1070222F0FC
:10214000070CFCE80223E14603F000485FEA080CB4
:1021500002D00FF2702C0DE05FEA045C02D50FF2A2
:10216000682C07E05FEAC47C02D00FF2602C01E02B
:10217000AFF2700C4FF0FF3823F00043CDF850C0A1
:1021800065280CD006DC452809D046281DD04728F4
:102190003DD13DE0662818D067287ED138E0002187
:1021A000112F01DB112000E0781CCDE9000106A908
:1021B0000EA8FFF7DDFCDDE90F010E9A0391002167
:1021C000009207F1010A04914DE04FF000400097A2
:1021D000CDE9011006A90EA8FFF7CAFCDDE90F0240
:1021E00003920E9B11990022DDF80CA0009304923B
:1021F00011B9791C00EB010AB7EB0A0004D4C0F155
:10220000FF3007F1010A0490AAEB0700019044E0B7
:10221000012F00DA01270021112F01DD112000E03C
:102220003846CDE9000106A90EA8FFF7A1FCDDE9BB
:102230000F010E9A0391002104910092BA462107E2
:102240000CD40399514500DA8A46BAF1010F05DD35
:10225000009AAAF10101515C302908D0B84202DA93
:1022600010F1040F06DA0121CDE9011015E0AAF101
:102270000101E9E7002805DC049901440491AAEB77
:10228000000102E0411C514500DD8A460499401AD4
:10229000401C01904FF000400290200704D40198A8
:1022A000504501DBCDF8048000208DF84F000298E6
:1022B0000DF14F07B0F1004F25D02B200E90029862
:1022C0004FF0020800280CDA404202902D200E90B8
:1022D00007E00A210298FEF751F93031029007F821
:1022E000011DB8F10001A8F10108F2DC02980028F4
:1022F000EFD1791E0E980870307800F0200040F081
:10230000450007F8020D12A8C01B00F10708149839
:10231000007800B1012000EB0A01019801EBE071A7
:1023200005984144401A401E0590E00306D45B46E0
:102330002146179A059800F05DF805441498007836
:1023400018B15A46179990476D1CE00324D55B4697
:102350002146179A059800F04DF805441CE00498B2
:10236000002807DBDDE90301884203DD0098405CBB
:10237000179901E0179930205A469047049805F1C3
:102380000105401C04900198401E019004D12E20AC
:102390005A46179990476D1CBAF10001AAF1010A3B
:1023A000DDDC05E017F8010B5A46179990476D1CC4
:1023B000B8F10001A8F10108F4DC5B462146179A48
:1023C0000598ABE62D0000002B0000002000000067
:1023D0002DE9F041044600251E461746880404D422
:1023E00005E039462020B0476D1C641EF9D528460B
:1023F000BDE8F0812DE9F041044600251E469046D7
:10240000C80301D5302700E02027880404D505E063
:1024100041463846B0476D1C641EF9D52846BDE8D4
:10242000F0810A68531C0B601070704740F67B43C4
:1024300005E01A460221491C9142FCDB401E00289F
:10244000F7DC7047FEF76AFDFFF794FAFFF722FA10
:10245000FFF7F6F9FFF75EFAFFF7BEF90348FFF75B
:10246000E9F802484838FEF717FCFEE75C00002058
:102470000000000000000000010203040607080934
:10248000A02400080000002014000000501B0008D9
:10249000B4240008140000208C040000601B000815
:1024A000000000000100000010000000000000001B
:0424B0000024F40010
:040000050800019559
:00000001FF
